:101DC7002323234D43552052756E696E67204F4B71
:101DD7000D0A006D6435436865636B53756D0D0AB5
:101DE700000D0A00D76AA478E8C7B756242070DB2D
:101DF700C1BDCEEEF57C0FAF4787C62AA830461384
:101E0700FD469501698098D88B44F7AFFFFF5BB11A
:101E1700895CD7BE6B901122FD987193A679438E8A
:101E270049B40821F61E2562C040B340265E5A51C8
:101E3700E9B6C7AAD62F105D02441453D8A1E6818C
:101E4700E7D3FBC821E1CDE6C33707D6F4D50D8725
:101E5700455A14EDA9E3E905FCEFA3F8676F02D92A
:101E67008D2A4C8AFFFA39428771F6816D9D61226E
:101E7700FDE5380CA4BEEA444BDECFA9F6BB4B60A8
:101E8700BEBFBC70289B7EC6EAA127FAD4EF308577
:101E970004881D05D9D4D039E6DB99E51FA27CF863
:101EA700C4AC5665F4292244432AFF97AB9423A771
:101EB700FC93A039655B59C38F0CCC92FFEFF47D7F
:101EC70085845DD16FA87E4FFE2CE6E0A301431405
:101ED7004E0811A1F7537E82BD3AF2352AD7D2BBFD
:041EE700EB86D39122
:0E292B0042070C000042070F0000820000006F
:10236A007FE87E031229197580FF7590FF75A0FF1B
:10237A0075B0FF758E01C288C2A8C2BAE490070E72
:10238A00F0D2AF1228B67BFF7A1D79C71200037804
:10239A00127431F20804F20804F20804F20804F292
:1023AA00782374FEF2087400F2087412F208E4F258
:1023BA00087405F27BFE7A0079021226927BFF7A74
:1023CA001D79DA12000378021222C37BFF7A1D7983
:1023DA00E812000378061222C37BFF7A1D79E812FD
:1023EA000003780A1222C37BFF7A1D79E8120003E0
:1023FA00780E1222C37BFF7A1D79E812000380FE51
:10291900E4FDFCC3ED9FEC9E50070DBD00010C804A
:01292900F2BB
:01292A00228A
:0B22C300E2FC08E2FD08E2FE08E2FF7A
:0522CE007820121B192D
:1022D300E4782CF208F27820080808E2540FFF781B
:1022E3002DE2FEC374079E2424F8EFF27820E2FC6B
:1022F30008E2FD08E2FE08E2FFE47B10FAF9F812B7
:1023030019BA7820121B19782DE2FFC374079FFFB7
:102313002424F8E2C36480948A50047E3080027ED1
:102323003774242FF8E22EF2782DE22401F218E21A
:102333003400F208E26408700218E27099E4782C21
:10234300F208F2782DE22424F8E2FF122703782D15
:10235300E22401F218E23400F2C308E2940818E21E
:062363006480948040DD5F
:012369002251
:1028DE00121B3E67452301900004121B58EFCDAB2F
:1028EE0089900008121B5898BADCFE90000C121B3F
:0628FE005810325476224E
:1025AC0078A8121B1978A8E2FC08E2FD08E2FE08E4
:1025BC00E2FF121A4C78B0E2FB08E2F908E2FA08E2
:1025CC00E2CBF8EB5FFFEA5EFEE95DFDE85CFCC088
:1025DC0004C005C006C00778ACE2FC08E2FD08E2C6
:1025EC00FE08E2FF78A8E2FB08E2F908E2FA08E24A
:1025FC00CBF8EB5FFFEA5EFEE95DFDE85CFCD00327
:10260C00D002D001D000EF4BFFEE4AFEED49FDECBD
:03261C0048FC2255
:10261F0078A8121B1978B0E2FC08E2FD08E2FE0868
:10262F00E2FF121A4C78ACE2FB08E2F908E2FA0872
:10263F00E2CBF8EB5FFFEA5EFEE95DFDE85CFCC014
:10264F0004C005C006C00778B0E2FC08E2FD08E24E
:10265F00FE08E2FF78A8E2FB08E2F908E2FA08E2D6
:10266F00CBF8EB5FFFEA5EFEE95DFDE85CFCD003B3
:10267F00D002D001D000EF4BFFEE4AFEED49FDEC4A
:03268F0048FC22E2
:10286F0078A8121B1978ACE2FC08E2FD08E2FE081A
:10287F00E2FF78A8E2FB08E2F908E2FA08E2CBF8F7
:10288F00EB6FFFEA6EFEE96DFDE86CFC78B0E2FBE2
:10289F0008E2F908E2FA08E2CBF8EB6FFFEA6EFE06
:0728AF00E96DFDE86CFC225D
:1028250078A8121B1978B0E2FC08E2FD08E2FE0860
:10283500E2FF121A4C78A8E2FB08E2F908E2FA086E
:10284500E2CBF8EB4FFFEA4EFEE94DFDE84CFC7894
:10285500ACE2FB08E2F908E2FA08E2CBF8EB6FFF1D
:0A286500EA6EFEE96DFDE86CFC224E
:1027D20078A8121B1978AFE2FFC374209FF978A87A
:1027E200E2FC08E2FD08E2FE08E2FFA801121A5923
:1027F200C004C005C006C00778AFE2F978A8E2FCC1
:1028020008E2FD08E2FE08E2FFA801121A6CD003FA
:10281200D002D001D000EB4FFFEA4EFEE94DFDE8B9
:032822004CFC2249
:101EEB00121AE978A4121B197881E2FC08E2FD08AA
:0B1EFB00E2FE08E2FF7BFE7A00797D2A
:101F0600788DEBF208EAF208E9F208121B197894C8
:101F1600E2FC08E2FD08E2FE08E2FF78AC121B19BB
:101F26007898E2FC08E2FD08E2FE08E2FF78B012CB
:101F36001B197890E2FC08E2FD08E2FE08E2FF12B7
:101F460025AC788DE2FB08E2FA08E2F9121AF9EFFD
:101F56002BFFEE3AFEED39FDEC38FC789CE2FB08EF
:101F6600E2F908E2FA08E2CBF8EB2FFFEA3EFEE9D7
:101F76003DFDE83CFC78A4E2FB08E2F908E2FA0839
:101F8600E2CBF8EB2FFFEA3EFEE93DFDE83CFCC064
:101F960004C005C006C00778A0E2FC08E2FD08E21E
:101FA600FE08E2FF78AC121B19D007D006D005D088
:101FB600041227D27890E2FB08E2F908E2FA08E276
:101FC600CBF8EB2FFFEA3EFEE93DFDE83CFC788DC1
:0B1FD600E2FB08E2FA08E2F9021ACF71
:101FE100121AE978A4121B197881E2FC08E2FD08B3
:0B1FF100E2FE08E2FF7BFE7A00797D33
:101FFC00788DEBF208EAF208E9F208121B197894D2
:10200C00E2FC08E2FD08E2FE08E2FF78AC121B19C4
:10201C007898E2FC08E2FD08E2FE08E2FF78B012D4
:10202C001B197890E2FC08E2FD08E2FE08E2FF12C0
:10203C00261F788DE2FB08E2FA08E2F9121AF9EF92
:10204C002BFFEE3AFEED39FDEC38FC789CE2FB08F8
:10205C00E2F908E2FA08E2CBF8EB2FFFEA3EFEE9E0
:10206C003DFDE83CFC78A4E2FB08E2F908E2FA0842
:10207C00E2CBF8EB2FFFEA3EFEE93DFDE83CFCC06D
:10208C0004C005C006C00778A0E2FC08E2FD08E227
:10209C00FE08E2FF78AC121B19D007D006D005D091
:1020AC00041227D27890E2FB08E2F908E2FA08E27F
:1020BC00CBF8EB2FFFEA3EFEE93DFDE83CFC788DCA
:0B20CC00E2FB08E2FA08E2F9021ACF7A
:1020D700121AE978A4121B197881E2FC08E2FD08BC
:0B20E700E2FE08E2FF7BFE7A00797D3C
:1020F200788DEBF208EAF208E9F208121B197894DB
:10210200E2FC08E2FD08E2FE08E2FF78AC121B19CD
:102112007898E2FC08E2FD08E2FE08E2FF78B012DD
:102122001B197890E2FC08E2FD08E2FE08E2FF12C9
:10213200286F788DE2FB08E2FA08E2F9121AF9EF49
:102142002BFFEE3AFEED39FDEC38FC789CE2FB0801
:10215200E2F908E2FA08E2CBF8EB2FFFEA3EFEE9E9
:102162003DFDE83CFC78A4E2FB08E2F908E2FA084B
:10217200E2CBF8EB2FFFEA3EFEE93DFDE83CFCC076
:1021820004C005C006C00778A0E2FC08E2FD08E230
:10219200FE08E2FF78AC121B19D007D006D005D09A
:1021A200041227D27890E2FB08E2F908E2FA08E288
:1021B200CBF8EB2FFFEA3EFEE93DFDE83CFC788DD3
:0B21C200E2FB08E2FA08E2F9021ACF83
:1021CD00121AE978A4121B197881E2FC08E2FD08C5
:0B21DD00E2FE08E2FF7BFE7A00797D45
:1021E800788DEBF208EAF208E9F208121B197894E4
:1021F800E2FC08E2FD08E2FE08E2FF78AC121B19D7
:102208007898E2FC08E2FD08E2FE08E2FF78B012E6
:102218001B197890E2FC08E2FD08E2FE08E2FF12D2
:102228002825788DE2FB08E2FA08E2F9121AF9EF9C
:102238002BFFEE3AFEED39FDEC38FC789CE2FB080A
:10224800E2F908E2FA08E2CBF8EB2FFFEA3EFEE9F2
:102258003DFDE83CFC78A4E2FB08E2F908E2FA0854
:10226800E2CBF8EB2FFFEA3EFEE93DFDE83CFCC07F
:1022780004C005C006C00778A0E2FC08E2FD08E239
:10228800FE08E2FF78AC121B19D007D006D005D0A3
:10229800041227D27890E2FB08E2F908E2FA08E291
:1022A800CBF8EB2FFFEA3EFEE93DFDE83CFC788DDC
:0B22B800E2FB08E2FA08E2F9021ACF8C
:10002600787A74FEF2087400F2087430F27828E2E6
:07003600FB08E2FA08E2F901
:0A003D007877EBF208EAF208E9F226
:10004700121A7F787D121B19900004121A9F78816B
:10005700121B19900008121A9F7885121B1990001D
:100067000C121A9F7889121B197885E2FC08E2FDA9
:1000770008E2FE08E2FF7894121B197889E2FC086F
:10008700E2FD08E2FE08E2FF7898121B19787AE28F
:10009700FB08E2FA08E2F9121A7F789C121B19781A
:1000A700A0121B2500000007901DEB121EEB7881A4
:1000B700E2FC08E2FD08E2FE08E2FF7894121B1951
:1000C7007885E2FC08E2FD08E2FE08E2FF78981274
:1000D7001B19787AE2FB08E2FA08E2F990000412A9
:1000E7001A9F789C121B1978A0121B250000000C80
:1000F700901DEF121AE978A4121B19787DE2FC080B
:10010700E2FD08E2FE08E2FF7BFE7A007989121F12
:1001170006787DE2FC08E2FD08E2FE08E2FF78943B
:10012700121B197881E2FC08E2FD08E2FE08E2FFF3
:100137007898121B19787AE2FB08E2FA08E2F9903C
:100147000008121A9F789C121B1978A0121B250011
:10015700000011901DF3121AE978A4121B1978896F
:10016700E2FC08E2FD08E2FE08E2FF7BFE7A007986
:1001770085121F067889E2FC08E2FD08E2FE08E224
:10018700FF7894121B19787DE2FC08E2FD08E2FE75
:1001970008E2FF7898121B19787AE2FB08E2FA085E
:1001A700E2F990000C121A9F789C121B1978A01282
:1001B7001B2500000016901DF7121AE978A4121BE0
:1001C700197885E2FC08E2FD08E2FE08E2FF7BFE03
:1001D7007A007981121F067885E2FC08E2FD08E2C1
:1001E700FE08E2FF7894121B197889E2FC08E2FD09
:1001F70008E2FE08E2FF7898121B19787AE2FB08FA
:10020700E2FA08E2F9900010121A9F789C121B1963
:1002170078A0121B2500000007901DFB121EEB782B
:1002270081E2FC08E2FD08E2FE08E2FF7894121B77
:10023700197885E2FC08E2FD08E2FE08E2FF7898FB
:10024700121B19787AE2FB08E2FA08E2F990001427
:10025700121A9F789C121B1978A0121B2500000008
:100267000C901DFF121AE978A4121B19787DE2FC85
:1002770008E2FD08E2FE08E2FF7BFE7A00798912B8
:100287001F06787DE2FC08E2FD08E2FE08E2FF783F
:1002970094121B197881E2FC08E2FD08E2FE08E2ED
:1002A700FF7898121B19787AE2FB08E2FA08E2F95C
:1002B700900018121A9F789C121B1978A0121B2500
:1002C70000000011901E03121AE978A4121B197876
:1002D70089E2FC08E2FD08E2FE08E2FF7BFE7A0005
:1002E7007985121F067889E2FC08E2FD08E2FE081C
:1002F700E2FF7894121B19787DE2FC08E2FD08E220
:10030700FE08E2FF7898121B19787AE2FB08E2FAF6
:1003170008E2F990001C121A9F789C121B1978A00A
:10032700121B2500000016901E07121AE978A41266
:100337001B197885E2FC08E2FD08E2FE08E2FF7B74
:10034700FE7A007981121F067885E2FC08E2FD0833
:10035700E2FE08E2FF7894121B197889E2FC08E2B2
:10036700FD08E2FE08E2FF7898121B19787AE2FB93
:1003770008E2FA08E2F9900020121A9F789C121BF3
:100387001978A0121B2500000007901E0B121EEB08
:100397007881E2FC08E2FD08E2FE08E2FF789412A9
:1003A7001B197885E2FC08E2FD08E2FE08E2FF7807
:1003B70098121B19787AE2FB08E2FA08E2F9900032
:1003C70024121A9F789C121B1978A0121B25000073
:1003D700000C901E0F121AE978A4121B19787DE2FF
:1003E700FC08E2FD08E2FE08E2FF7BFE7A0079895D
:1003F700121F06787DE2FC08E2FD08E2FE08E2FF34
:100407007894121B197881E2FC08E2FD08E2FE08E5
:10041700E2FF7898121B19787AE2FB08E2FA08E201
:10042700F9900028121A9F789C121B1978A0121BAA
:100437002500000011901E13121AE978A4121B1947
:100447007889E2FC08E2FD08E2FE08E2FF7BFE7A1B
:10045700007985121F067889E2FC08E2FD08E2FEB2
:1004670008E2FF7894121B19787DE2FC08E2FD0888
:10047700E2FE08E2FF7898121B19787AE2FB08E29D
:10048700FA08E2F990002C121A9F789C121B19782F
:10049700A0121B2500000016901E17121AE978A457
:1004A700121B197885E2FC08E2FD08E2FE08E2FF6C
:1004B7007BFE7A007981121F067885E2FC08E2FD4F
:1004C70008E2FE08E2FF7894121B197889E2FC081B
:1004D700E2FD08E2FE08E2FF7898121B19787AE23B
:1004E700FB08E2FA08E2F9900030121A9F789C1292
:1004F7001B1978A0121B2500000007901E1B121E57
:10050700EB7881E2FC08E2FD08E2FE08E2FF78945E
:10051700121B197885E2FC08E2FD08E2FE08E2FFFB
:100527007898121B19787AE2FB08E2FA08E2F99048
:100537000034121A9F789C121B1978A0121B2500F1
:1005470000000C901E1F121AE978A4121B19787D5F
:10055700E2FC08E2FD08E2FE08E2FF7BFE7A007992
:1005670089121F06787DE2FC08E2FD08E2FE08E238
:10057700FF7894121B197881E2FC08E2FD08E2FE7D
:1005870008E2FF7898121B19787AE2FB08E2FA086A
:10059700E2F9900038121A9F789C121B1978A01262
:1005A7001B2500000011901E23121AE978A4121BC4
:1005B700197889E2FC08E2FD08E2FE08E2FF7BFE0B
:1005C7007A007985121F067889E2FC08E2FD08E2C5
:1005D700FE08E2FF7894121B19787DE2FC08E2FD21
:1005E70008E2FE08E2FF7898121B19787AE2FB0806
:1005F700E2FA08E2F990003C121A9F789C121B1944
:1006070078A0121B2500000016901E27121AE97801
:10061700A4121B197885E2FC08E2FD08E2FE08E255
:10062700FF7BFE7A007981121F067885E2FC08E2DB
:10063700FD08E2FE08E2FF7894121B197889E2FCB4
:1006470008E2FD08E2FE08E2FF7898121B19787AA3
:10065700E2FB08E2FA08E2F9900004121A9F789C7C
:10066700121B1978A0121B2500000005901E2B12E3
:100677001FE17881E2FC08E2FD08E2FE08E2FF786C
:1006870094121B197885E2FC08E2FD08E2FE08E2F5
:10069700FF7898121B19787AE2FB08E2FA08E2F968
:1006A700900018121A9F789C121B1978A0121B250C
:1006B70000000009901E2F121AE978A4121B19785E
:1006C7007DE2FC08E2FD08E2FE08E2FF7BFE7A001D
:1006D7007989121FFC787DE2FC08E2FD08E2FE083A
:1006E700E2FF7894121B197881E2FC08E2FD08E228
:1006F700FE08E2FF7898121B19787AE2FB08E2FA03
:1007070008E2F990002C121A9F789C121B1978A006
:10071700121B250000000E901E33121AE978A4124E
:100727001B197889E2FC08E2FD08E2FE08E2FF7B7C
:10073700FE7A007985121FFC7889E2FC08E2FD0841
:10074700E2FE08E2FF7894121B19787DE2FC08E2CA
:10075700FD08E2FE08E2FF7898121B19787AE2FB9F
:1007670008E2FA08E2F9121A7F789C121B1978A09E
:10077700121B2500000014901E37121AE978A412E4
:100787001B197885E2FC08E2FD08E2FE08E2FF7B20
:10079700FE7A007981121FFC7885E2FC08E2FD08E9
:1007A700E2FE08E2FF7894121B197889E2FC08E25E
:1007B700FD08E2FE08E2FF7898121B19787AE2FB3F
:1007C70008E2FA08E2F9900014121A9F789C121BAB
:1007D7001978A0121B2500000005901E3B121FE18F
:1007E7007881E2FC08E2FD08E2FE08E2FF78941255
:1007F7001B197885E2FC08E2FD08E2FE08E2FF78B3
:1008070098121B19787AE2FB08E2FA08E2F99000DD
:1008170028121A9F789C121B1978A0121B2500001A
:100827000009901E3F121AE978A4121B19787DE27D
:10083700FC08E2FD08E2FE08E2FF7BFE7A00798908
:10084700121FFC787DE2FC08E2FD08E2FE08E2FFE9
:100857007894121B197881E2FC08E2FD08E2FE0891
:10086700E2FF7898121B19787AE2FB08E2FA08E2AD
:10087700F990003C121A9F789C121B1978A0121B42
:10088700250000000E901E43121AE978A4121B19C6
:100897007889E2FC08E2FD08E2FE08E2FF7BFE7AC7
:1008A700007985121FFC7889E2FC08E2FD08E2FE68
:1008B70008E2FF7894121B19787DE2FC08E2FD0834
:1008C700E2FE08E2FF7898121B19787AE2FB08E249
:1008D700FA08E2F9900010121A9F789C121B1978F7
:1008E700A0121B2500000014901E47121AE978A4D5
:1008F700121B197885E2FC08E2FD08E2FE08E2FF18
:100907007BFE7A007981121FFC7885E2FC08E2FD04
:1009170008E2FE08E2FF7894121B197889E2FC08C6
:10092700E2FD08E2FE08E2FF7898121B19787AE2E6
:10093700FB08E2FA08E2F9900024121A9F789C1249
:100947001B1978A0121B2500000005901E4B121FD3
:10095700E17881E2FC08E2FD08E2FE08E2FF789414
:10096700121B197885E2FC08E2FD08E2FE08E2FFA7
:100977007898121B19787AE2FB08E2FA08E2F990F4
:100987000038121A9F789C121B1978A0121B250099
:10099700000009901E4F121AE978A4121B19787DDE
:1009A700E2FC08E2FD08E2FE08E2FF7BFE7A00793E
:1009B70089121FFC787DE2FC08E2FD08E2FE08E2EE
:1009C700FF7894121B197881E2FC08E2FD08E2FE29
:1009D70008E2FF7898121B19787AE2FB08E2FA0816
:1009E700E2F990000C121A9F789C121B1978A0123A
:1009F7001B250000000E901E53121AE978A4121B43
:100A0700197889E2FC08E2FD08E2FE08E2FF7BFEB6
:100A17007A007985121FFC7889E2FC08E2FD08E27A
:100A2700FE08E2FF7894121B19787DE2FC08E2FDCC
:100A370008E2FE08E2FF7898121B19787AE2FB08B1
:100A4700E2FA08E2F9900020121A9F789C121B190B
:100A570078A0121B2500000014901E57121AE9787F
:100A6700A4121B197885E2FC08E2FD08E2FE08E201
:100A7700FF7BFE7A007981121FFC7885E2FC08E291
:100A8700FD08E2FE08E2FF7894121B197889E2FC60
:100A970008E2FD08E2FE08E2FF7898121B19787A4F
:100AA700E2FB08E2FA08E2F9900034121A9F789CF8
:100AB700121B1978A0121B2500000005901E5B125F
:100AC7001FE17881E2FC08E2FD08E2FE08E2FF7818
:100AD70094121B197885E2FC08E2FD08E2FE08E2A1
:100AE700FF7898121B19787AE2FB08E2FA08E2F914
:100AF700900008121A9F789C121B1978A0121B25C8
:100B070000000009901E5F121AE978A4121B1978D9
:100B17007DE2FC08E2FD08E2FE08E2FF7BFE7A00C8
:100B27007989121FFC787DE2FC08E2FD08E2FE08E5
:100B3700E2FF7894121B197881E2FC08E2FD08E2D3
:100B4700FE08E2FF7898121B19787AE2FB08E2FAAE
:100B570008E2F990001C121A9F789C121B1978A0C2
:100B6700121B250000000E901E63121AE978A412CA
:100B77001B197889E2FC08E2FD08E2FE08E2FF7B28
:100B8700FE7A007985121FFC7889E2FC08E2FD08ED
:100B9700E2FE08E2FF7894121B19787DE2FC08E276
:100BA700FD08E2FE08E2FF7898121B19787AE2FB4B
:100BB70008E2FA08E2F9900030121A9F789C121B9B
:100BC7001978A0121B2500000014901E67121AE95D
:100BD70078A4121B197885E2FC08E2FD08E2FE08FA
:100BE700E2FF7BFE7A007981121FFC7885E2FC0820
:100BF700E2FD08E2FE08E2FF7894121B197889E209
:100C0700FC08E2FD08E2FE08E2FF7898121B19785B
:100C17007AE2FB08E2FA08E2F9900014121A9F78C8
:100C27009C121B1978A0121B2500000004901E6B54
:100C37001220D77881E2FC08E2FD08E2FE08E2FF15
:100C47007894121B197885E2FC08E2FD08E2FE0899
:100C5700E2FF7898121B19787AE2FB08E2FA08E2B9
:100C6700F9900020121A9F789C121B1978A0121B6A
:100C7700250000000B901E6F121AE978A4121B19A9
:100C8700787DE2FC08E2FD08E2FE08E2FF7BFE7ADF
:100C97000079891220F2787DE2FC08E2FD08E2FE85
:100CA70008E2FF7894121B197881E2FC08E2FD083C
:100CB700E2FE08E2FF7898121B19787AE2FB08E255
:100CC700FA08E2F990002C121A9F789C121B1978E7
:100CD700A0121B2500000010901E73121AE978A4B9
:100CE700121B197889E2FC08E2FD08E2FE08E2FF20
:100CF7007BFE7A0079851220F27889E2FC08E2FD12
:100D070008E2FE08E2FF7894121B19787DE2FC08DE
:100D1700E2FD08E2FE08E2FF7898121B19787AE2F2
:100D2700FB08E2FA08E2F9900038121A9F789C1241
:100D37001B1978A0121B2500000017901E77121AA6
:100D4700E978A4121B197885E2FC08E2FD08E2FEA7
:100D570008E2FF7BFE7A0079811220F27885E2FCB7
:100D670008E2FD08E2FE08E2FF7894121B19788971
:100D7700E2FC08E2FD08E2FE08E2FF7898121B1980
:100D8700787AE2FB08E2FA08E2F9900004121A9F67
:100D9700789C121B1978A0121B2500000004901ED6
:100DA7007B1220D77881E2FC08E2FD08E2FE08E228
:100DB700FF7894121B197885E2FC08E2FD08E2FE31
:100DC70008E2FF7898121B19787AE2FB08E2FA0822
:100DD700E2F9900010121A9F789C121B1978A01242
:100DE7001B250000000B901E7F121AE978A4121B26
:100DF70019787DE2FC08E2FD08E2FE08E2FF7BFECF
:100E07007A0079891220F2787DE2FC08E2FD08E297
:100E1700FE08E2FF7894121B197881E2FC08E2FDD4
:100E270008E2FE08E2FF7898121B19787AE2FB08BD
:100E3700E2FA08E2F990001C121A9F789C121B191B
:100E470078A0121B2500000010901E83121AE97863
:100E5700A4121B197889E2FC08E2FD08E2FE08E209
:100E6700FF7BFE7A0079851220F27889E2FC08E29E
:100E7700FD08E2FE08E2FF7894121B19787DE2FC78
:100E870008E2FD08E2FE08E2FF7898121B19787A5B
:100E9700E2FB08E2FA08E2F9900028121A9F789C10
:100EA700121B1978A0121B2500000017901E87122D
:100EB7001AE978A4121B197885E2FC08E2FD08E21A
:100EC700FE08E2FF7BFE7A0079811220F27885E244
:100ED700FC08E2FD08E2FE08E2FF7894121B19788D
:100EE70089E2FC08E2FD08E2FE08E2FF7898121B9F
:100EF70019787AE2FB08E2FA08E2F9900034121A4C
:100F07009F789C121B1978A0121B250000000490E3
:100F17001E8B1220D77881E2FC08E2FD08E2FE086A
:100F2700E2FF7894121B197885E2FC08E2FD08E2DB
:100F3700FE08E2FF7898121B19787AE2FB08E2FABA
:100F470008E2F9121A7F789C121B1978A0121B2548
:100F57000000000B901E8F121AE978A4121B197853
:100F67007DE2FC08E2FD08E2FE08E2FF7BFE7A0074
:100F770079891220F2787DE2FC08E2FD08E2FE089A
:100F8700E2FF7894121B197881E2FC08E2FD08E27F
:100F9700FE08E2FF7898121B19787AE2FB08E2FA5A
:100FA70008E2F990000C121A9F789C121B1978A07E
:100FB700121B2500000010901E93121AE978A41244
:100FC7001B197889E2FC08E2FD08E2FE08E2FF7BD4
:100FD700FE7A0079851220F27889E2FC08E2FD08A2
:100FE700E2FE08E2FF7894121B19787DE2FC08E222
:100FF700FD08E2FE08E2FF7898121B19787AE2FBF7
:1010070008E2FA08E2F9900018121A9F789C121B5E
:101017001978A0121B2500000017901E97121AE9D5
:1010270078A4121B197885E2FC08E2FD08E2FE08A5
:10103700E2FF7BFE7A0079811220F27885E2FC08D4
:10104700E2FD08E2FE08E2FF7894121B197889E2B4
:10105700FC08E2FD08E2FE08E2FF7898121B197807
:101067007AE2FB08E2FA08E2F9900024121A9F7864
:101077009C121B1978A0121B2500000004901E9BD0
:101087001220D77881E2FC08E2FD08E2FE08E2FFC1
:101097007894121B197885E2FC08E2FD08E2FE0845
:1010A700E2FF7898121B19787AE2FB08E2FA08E265
:1010B700F9900030121A9F789C121B1978A0121B06
:1010C700250000000B901E9F121AE978A4121B1925
:1010D700787DE2FC08E2FD08E2FE08E2FF7BFE7A8B
:1010E7000079891220F2787DE2FC08E2FD08E2FE31
:1010F70008E2FF7894121B197881E2FC08E2FD08E8
:10110700E2FE08E2FF7898121B19787AE2FB08E200
:10111700FA08E2F990003C121A9F789C121B197882
:10112700A0121B2500000010901EA3121AE978A434
:10113700121B197889E2FC08E2FD08E2FE08E2FFCB
:101147007BFE7A0079851220F27889E2FC08E2FDBD
:1011570008E2FE08E2FF7894121B19787DE2FC088A
:10116700E2FD08E2FE08E2FF7898121B19787AE29E
:10117700FB08E2FA08E2F9900008121A9F789C121D
:101187001B1978A0121B2500000017901EA7121A22
:10119700E978A4121B197885E2FC08E2FD08E2FE53
:1011A70008E2FF7BFE7A0079811220F27885E2FC63
:1011B70008E2FD08E2FE08E2FF7894121B1978891D
:1011C700E2FC08E2FD08E2FE08E2FF7898121B192C
:1011D700787AE2FB08E2FA08E2F9121A7F789C12A1
:1011E7001B1978A0121B2500000006901EAB1221C8
:1011F700CD7881E2FC08E2FD08E2FE08E2FF789480
:10120700121B197885E2FC08E2FD08E2FE08E2FFFE
:101217007898121B19787AE2FB08E2FA08E2F9904B
:10122700001C121A9F789C121B1978A0121B25000C
:1012370000000A901EAF121AE978A4121B19787DD4
:10124700E2FC08E2FD08E2FE08E2FF7BFE7A007995
:10125700891221E8787DE2FC08E2FD08E2FE08E257
:10126700FF7894121B197881E2FC08E2FD08E2FE80
:1012770008E2FF7898121B19787AE2FB08E2FA086D
:10128700E2F9900038121A9F789C121B1978A01265
:101297001B250000000F901EB3121AE978A4121B39
:1012A700197889E2FC08E2FD08E2FE08E2FF7BFE0E
:1012B7007A0079851221E87889E2FC08E2FD08E2E4
:1012C700FE08E2FF7894121B19787DE2FC08E2FD24
:1012D70008E2FE08E2FF7898121B19787AE2FB0809
:1012E700E2FA08E2F9900014121A9F789C121B196F
:1012F70078A0121B2500000015901EB7121AE97876
:10130700A4121B197885E2FC08E2FD08E2FE08E258
:10131700FF7BFE7A0079811221E87885E2FC08E2FA
:10132700FD08E2FE08E2FF7894121B197889E2FCB7
:1013370008E2FD08E2FE08E2FF7898121B19787AA6
:10134700E2FB08E2FA08E2F9900030121A9F789C53
:10135700121B1978A0121B2500000006901EBB1255
:1013670021CD7881E2FC08E2FD08E2FE08E2FF7881
:1013770094121B197885E2FC08E2FD08E2FE08E2F8
:10138700FF7898121B19787AE2FB08E2FA08E2F96B
:1013970090000C121A9F789C121B1978A0121B251B
:1013A7000000000A901EBF121AE978A4121B1978D0
:1013B7007DE2FC08E2FD08E2FE08E2FF7BFE7A0020
:1013C70079891221E8787DE2FC08E2FD08E2FE084F
:1013D700E2FF7894121B197881E2FC08E2FD08E22B
:1013E700FE08E2FF7898121B19787AE2FB08E2FA06
:1013F70008E2F9900028121A9F789C121B1978A00E
:10140700121B250000000F901EC3121AE978A412C0
:101417001B197889E2FC08E2FD08E2FE08E2FF7B7F
:10142700FE7A0079851221E87889E2FC08E2FD0856
:10143700E2FE08E2FF7894121B19787DE2FC08E2CD
:10144700FD08E2FE08E2FF7898121B19787AE2FBA2
:1014570008E2FA08E2F9900004121A9F789C121B1E
:101467001978A0121B2500000015901EC7121AE953
:1014770078A4121B197885E2FC08E2FD08E2FE0851
:10148700E2FF7BFE7A0079811221E87885E2FC0889
:10149700E2FD08E2FE08E2FF7894121B197889E260
:1014A700FC08E2FD08E2FE08E2FF7898121B1978B3
:1014B7007AE2FB08E2FA08E2F9900020121A9F7814
:1014C7009C121B1978A0121B2500000006901ECB4A
:1014D7001221CD7881E2FC08E2FD08E2FE08E2FF76
:1014E7007894121B197885E2FC08E2FD08E2FE08F1
:1014F700E2FF7898121B19787AE2FB08E2FA08E211
:10150700F990003C121A9F789C121B1978A0121BA5
:10151700250000000A901ECF121AE978A4121B19A1
:10152700787DE2FC08E2FD08E2FE08E2FF7BFE7A36
:101537000079891221E8787DE2FC08E2FD08E2FEE5
:1015470008E2FF7894121B197881E2FC08E2FD0893
:10155700E2FE08E2FF7898121B19787AE2FB08E2AC
:10156700FA08E2F9900018121A9F789C121B197852
:10157700A0121B250000000F901ED3121AE978A4B1
:10158700121B197889E2FC08E2FD08E2FE08E2FF77
:101597007BFE7A0079851221E87889E2FC08E2FD72
:1015A70008E2FE08E2FF7894121B19787DE2FC0836
:1015B700E2FD08E2FE08E2FF7898121B19787AE24A
:1015C700FB08E2FA08E2F9900034121A9F789C129D
:1015D7001B1978A0121B2500000015901ED7121AA0
:1015E700E978A4121B197885E2FC08E2FD08E2FEFF
:1015F70008E2FF7BFE7A0079811221E87885E2FC18
:1016070008E2FD08E2FE08E2FF7894121B197889C8
:10161700E2FC08E2FD08E2FE08E2FF7898121B19D7
:10162700787AE2FB08E2FA08E2F9900010121A9FB2
:10163700789C121B1978A0121B2500000006901E2B
:10164700DB1221CD7881E2FC08E2FD08E2FE08E228
:10165700FF7894121B197885E2FC08E2FD08E2FE88
:1016670008E2FF7898121B19787AE2FB08E2FA0879
:10167700E2F990002C121A9F789C121B1978A0127D
:101687001B250000000A901EDF121AE978A4121B1E
:1016970019787DE2FC08E2FD08E2FE08E2FF7BFE26
:1016A7007A0079891221E8787DE2FC08E2FD08E2F8
:1016B700FE08E2FF7894121B197881E2FC08E2FD2C
:1016C70008E2FE08E2FF7898121B19787AE2FB0815
:1016D700E2FA08E2F9900008121A9F789C121B1987
:1016E70078A0121B250000000F901EE3121AE9785C
:1016F700A4121B197889E2FC08E2FD08E2FE08E261
:10170700FF7BFE7A0079851221E87889E2FC08E2FE
:10171700FD08E2FE08E2FF7894121B19787DE2FCCF
:1017270008E2FD08E2FE08E2FF7898121B19787AB2
:10173700E2FB08E2FA08E2F9900024121A9F789C6B
:10174700121B1978A0121B2500000015901EE71226
:101757001AE978A4121B197885E2FC08E2FD08E271
:10176700FE08E2FF7BFE7A0079811221E87877E2B2
:10177700FB08E2FA08E2F9C003C002C001121A7FAF
:10178700787DE2FB08E2F908E2FA08E2CBF8EB2FF2
:10179700FFEA3EFEE93DFDE83CFCD001D002D00364
:1017A700121ACF7877E2FB08E2FA08E22404F9E498
:1017B7003AFAC003C002C001121A7F7881E2FB081F
:1017C700E2F908E2FA08E2CBF8EB2FFFEA3EFEE97E
:1017D7003DFDE83CFCD001D002D003121ACF787748
:1017E700E2FB08E2FA08E22408F9E43AFAC003C087
:1017F70002C001121A7F7885E2FB08E2F908E2FAD3
:1018070008E2CBF8EB2FFFEA3EFEE93DFDE83CFCA2
:10181700D001D002D003121ACF7877E2FB08E2FAA0
:1018270008E2240CF9E43AFAC003C002C001121A14
:101837007F7889E2FB08E2F908E2FA08E2CBF8EBE5
:101847002FFFEA3EFEE93DFDE83CFCD001D002D087
:0418570003021ACF9F
:0A240A007828EBF208EAF208E9F284
:1024140008E2F908E2FA08E27830C9F208EAF208B8
:10242400E9F2782EE2FE08E27806CEC313CE13D882
:10243400F97974F3EE19F3E47875F208F27873E23B
:10244400FE08E2FFC37876E29F18E29E5045783397
:102454007C007DFEC0007830E2FB08E2FA08E2F975
:10246400D0007E007F4012192B787A74FEF2087433
:1024740000F2087433F278281200357832E22440EE
:10248400F218E23400F27876E22401F218E2340021
:03249400F280AA29
:012497002222
:0A1C7D007828EBF208EAF208E9F219
:101C8700782EE2FE08E2FFE47870F2EF543F08F2A4
:101C970018E2FC08E2FD782BE2FB08E2FA08E22FE3
:101CA700F9EA3EFAC3E99DF9EA9CFA7872EBF20881
:101CB700EAF208E9F2C3ED9438EC940050737870B7
:101CC700E2FE08E2FF78307C007DFEC0007872E219
:101CD700FB08E2FA08E2F9D00012192B7871E2FF4B
:101CE7002430F87480F27870E2FC08E2FDC37437A0
:101CF7009DF582E49CF58374312FF9E4FA7BFEFDB0
:101D0700AE83AF82121B7C782EE2FA08E2FBAE02AA
:101D1700781DCEC313CE13D8F9FFE4FCFD786C12FF
:101D27001B19EBAE027803C333CE33CED8F9021DAD
:101D3700BA7870E2FE08E2FF78307C007DFEC000D2
:101D47007872E2FB08E2FA08E2F9D00012192B7860
:101D570071E2FF2430F87480F27870E2FC08E2FD4B
:101D6700C3743F9DF582E49CF58374312FF9E4FA3F
:101D77007BFEFDAE83AF82121B7C1200267E007FA6
:101D8700387D007BFE7A007930121B7C782EE2FAD0
:101D970008E2FBAE02781DCEC313CE13D8F9FFE4D9
:101DA700FCFD786C121B19EBAE027803C333CE33FC
:0F1DB700CED8F9FFE4FCFD7868121B1912002644
:011DC60022FA
:102692007820EBF208EAF208E9F27820E2FB08E29D
:1026A200FA08E2F91228DE7823E2F908E2FA08E2EF
:1026B200782BC9F208EAF208E9F27826E2FF08E28A
:1026C200782ECFF208EFF27820E2FB08E2FA08E275
:1026D200F912240A7823E2F908E2FA08E2782BC90F
:1026E200F208EAF208E9F27826E2FF08E2782ECF51
:1026F200F208EFF27820E2FB08E2FA08E2F9021CA3
:012702007D59
:030023000225248F
:0B252400C0E0C083C082C0D075D008AA
:10252F0030982AAF99C298781CE2FC08E224B4F5DF
:10253F008274003CF583EFF0E22401F218E23400DC
:10254F00F2C3E2648094844004E4F208F2309944C8
:10255F00781EE2FE08E2FF781AE2FC08E2FD6F70D7
:10256F0002EC6E602B74B42DF58274043CF583E09D
:10257F00F599E22401F218E23400F2C308E294580C
:10258F0018E2648094824004E4F208F2C2018002EF
:04259F00C200C2991B
:0925A300D0D0D082D083D0E03208
:1028B600E47818F208F2781CF208F2781AF208F2B4
:1028C600781EF208F2C200C20175CBFF75CAE27526
:0828D600C834759850D2AC2201
:0A0003007820EBF208EAF208E9F2B7
:10000D001229047820E2FB08E2FA08E2F9AD07AC08
:04001D00060227733D
:102773007823EBF208EAF208E9F208ECF208EDF24A
:10278300E408F208F27826E2FE08E2FFC37829E2C1
:102793009FEE6480F5F018E2648095F05030782362
:1027A300E2FB08E2FA08E2F97828E2FE08E2F582A1
:1027B3008E83121951FF122703EFF47002EEF460B7
:0E27C300DD7829E22401F218E23400F280B73A
:0127D10022E5
:10270300200168200006D2008F99805AC2AC781E3F
:10271300E2FC08E2FD24B4F58274043CF583EFF097
:10272300ED2401FFE43CFEC3EF9458EE64809482F1
:102733004003E4FEFF781BE2B5070B18E2B506067B
:10274300D201D2AC8025781FE22401F218E23400D2
:10275300F2C308E2945818E2648094824004E4F2DD
:0F27630008F2C201D2AC7E007F01227EFF7FFF11
:012772002244
:030000000224983F
:0C249800787FE4F6D8FD7581200224DF77
:10185B00E709F608DFFA8046E709F208DFFA803E6F
:10186B0088828C83E709F0A3DFFA8032E309F6085C
:10187B00DFFA8078E309F208DFFA807088828C83C4
:10188B00E309F0A3DFFA806489828A83E0A3F60878
:10189B00DFFA805889828A83E0A3F208DFFA804C52
:1018AB0080D280FA80C680D4806980F28033801029
:1018BB0080A680EA809A80A880DA80E280CA803392
:1018CB0089828A83ECFAE493A3C8C582C8CCC5830A
:1018DB00CCF0A3C8C582C8CCC583CCDFE9DEE780DA
:1018EB000D89828A83E493A3F608DFF9ECFAA9F059
:1018FB00EDFB2289828A83ECFAE0A3C8C582C8CCAF
:10190B00C583CCF0A3C8C582C8CCC583CCDFEADEC7
:10191B00E880DB89828A83E493A3F208DFF980CC29
:10192B0088F0EF60010E4E60C388F0ED2402B40422
:10193B000050B9F582EB2402B4040050AF232345C9
:06194B0082239018AB732B
:10195100BB010CE58229F582E5833AF583E022504B
:1019610006E92582F8E622BBFE06E92582F8E22295
:0D197100E58229F582E5833AF583E49322AF
:10197E0075F008758200EF2FFFEE33FECD33CDCC20
:10198E0033CCC58233C5829BED9AEC99E5829840A3
:10199E000CF582EE9BFEED9AFDEC99FC0FD5F0D680
:1019AE00E4CEFBE4CDFAE4CCF9A88222B800C1B9AA
:1019BE000059BA002DEC8BF084CFCECDFCE5F0CBE8
:1019CE00F97818EF2FFFEE33FEED33FDEC33FCEB21
:1019DE0033FB10D703994004EB99FB0FD8E5E4F9DC
:1019EE00FA227818EF2FFFEE33FEED33FDEC33FCC9
:1019FE00C933C910D7059BE99A4007EC9BFCE99ABD
:101A0E00F90FD8E0E4C9FAE4CCFB2275F010EF2F01
:101A1E00FFEE33FEED33FDCC33CCC833C810D70701
:101A2E009BEC9AE899400AED9BFDEC9AFCE899F83C
:0E1A3E000FD5F0DAE4CDFBE4CCFAE4C8F922CF
:0D1A4C00CFF4CFCEF4CECDF4CDCCF4CC222F
:101A5900E8600FECC313FCED13FDEE13FEEF13FF6B
:031A6900D8F1228F
:101A6C00E8600FEFC333FFEE33FEED33FDEC33FCD8
:031A7C00D8F1227C
:101A7F00BB010789828A83021BCD5005E9F8021B3F
:101A8F00C1BBFE05E9F8021BD989828A83021AE9D4
:101A9F00BB010DE58229F582E5833AF583021BCD63
:101AAF005007E92582F8021BC1BBFE07E92582F822
:101ABF00021BD9E58229F582E5833AF583021AE9FB
:101ACF00BB010789828A83021C275005E9F8021C93
:0A1ADF001BBBFE05E9F8021B1922EB
:101AE900E493FC740193FD740293FE740393FF2243
:101AF900BB010789828A83021BF25005E9F8021BA0
:101B0900E5BBFE05E9F8021BFE89828A83021C0BEC
:0C1B1900ECF208EDF208EEF208EFF22208
:101B2500D083D082E493F208740193F2087402938F
:091B3500F208740393F2740473C6
:101B3E00BB010789828A83021C4C5005E9F8021CFE
:0A1B4E0033BBFE05E9F8021B252257
:101B5800BB010DE58229F582E5833AF583021C4C29
:101B68005007E92582F8021C33BBFE07E92582F8F5
:041B7800021B252205
:10290400E4FFFE121BA8600C0FEF70010E09E970C2
:05291400F20A80EF2231
:101B7C00EF4E6012EF60010EEDBB010B89828A8380
:101B8C00F0A3DFFCDEFA2289F05007F709DFFCA98D
:0C1B9C00F022BBFEFCF309DFFCA9F022E4
:1024A40002236AE493A3F8E493A34003F68001F2C1
:1024B40008DFF48029E493A3F85407240CC8C33339
:1024C400C4540F4420C8834004F456800146F6DF08
:1024D400E4800B010204081020408090292BE47E44
:1024E400019360BCA3FF543F30E509541FFEE493FD
:1024F400A360010ECF54C025E060A840B8E493A3C4
:10250400FAE493A3F8E493A3C8C582C8CAC583CAEE
:10251400F0A3C8C582C8CAC583CADFE9DEE780BEA6
:01293900009D
:101BA800BB010689828A83E0225002E722BBFE023B
:091BB800E32289828A83E493226E
:0C1BC100E6FC08E6FD08E6FE08E6FF2250
:0C1BCD00E0FCA3E0FDA3E0FEA3E0FF228B
:0C1BD900E2FC08E2FD08E2FE08E2FF2248
:0D1BE500E6FB08E6F908E6FA08E6CBF82270
:0C1BF200E0F8A3E0F9A3E0FAA3E0FB2276
:0D1BFE00E2FB08E2F908E2FA08E2CBF82267
:101C0B00E493F8740193F9740293FA740393FB222F
:0C1C1B00ECF608EDF608EEF608EFF622F5
:0C1C2700ECF0A3EDF0A3EEF0A3EFF02230
:101C3300D083D082E493F608740193F60874029378
:091C4300F608740393F6740473AF
:101C4C00A8828583F0D083D082121C63121C63128D
:101C5C001C63121C63E473E493A3C583C5F0C583B2
:101C6C00C8C582C8F0A3C583C5F0C583C8C582C8E2
:011C7C002245
:00000001FF
